:020000040800F2
:10000000400400209D01000845040008A7010008E5
:10001000430400088F030008A90500080000000041
:100020000000000000000000000000009F04000825
:10003000910300080000000047040008550500086F
:10004000B7010008B7010008B7010008B7010008B0
:10005000B7010008B7010008B7010008B7010008A0
:10006000B7010008B7010008B7010008B701000890
:10007000B7010008B7010008B7010008B701000880
:10008000B7010008B7010008B7010008B701000870
:10009000B7010008B7010008B7010008B701000860
:1000A000B7010008B7010008B7010008B701000850
:1000B000B7010008B7010008B7010008B701000840
:1000C000B7010008B7010008B7010008B701000830
:1000D000B7010008B7010008B7010008B701000820
:1000E000B7010008B7010008B7010008B701000810
:1000F000B7010008B7010008B7010008B701000800
:10010000B7010008B7010008B7010008B7010008EF
:10011000B7010008B7010008B7010008B7010008DF
:10012000B7010008B7010008B7010008B7010008CF
:10013000B7010008B7010008B7010008B7010008BF
:10014000B7010008B7010008B7010008B7010008AF
:10015000B7010008B7010008B7010008B70100089F
:10016000B7010008B7010008B7010008B70100088F
:10017000B7010008B7010008B7010008B70100087F
:10018000B7010008B7010008DFF80CD000F018F83C
:1001900000480047C9050008400400200648804781
:1001A00006480047FEE7FEE7FEE7FEE7FEE7FEE75C
:1001B000FEE7FEE7FEE7FEE75905000889010008B3
:1001C000064C074D06E0E06840F0010394E80700A4
:1001D00098471034AC42F6D3FFF7DAFF0006000868
:1001E00020060008C943016070470029816802D0D9
:1001F00041F0010101E021F0010181607047000040
:10020000074B10B51A6807490A40D0E9001421438A
:10021000D0E90240044321431143196010BD00009E
:1002200004230140E030FCFF10B50121080200F07A
:1002300017F90121042000F007F9194807210024CB
:10024000016003210171C4710146164800F0A8F84D
:10025000154804604460C460FFF7D2FF12480121D2
:1002600018380460017141718460046101750F4C9C
:100270000146204600F026F8002301220A212046EC
:1002800000F046F808492046183900F01BF8012113
:100290002046FFF7AAFF2046BDE8104000F072B8E4
:1002A0001000002000080240300000200020014023
:1002B000C06C80B270470246002012680A4200D02B
:1002C0000120704730B542680F4B0C791A400B681B
:1002D00042EA04221343436082680C4B4D791A4072
:1002E000D1E9034323438C6844EA45042343134381
:1002F0008360C26A097D22F47002491EC9B242EAD3
:100300000151C16230BD0000FFFEFFFCFDF7FFC0E0
:1003100070B5072409290AD9C568A1F10A0606EBB8
:100320004606B440A543B3401D43C56007E00569D8
:1003300001EB4106B440A543B3401D4305611F23B3
:10034000072A09D2446B521E02EB820293409C435F
:1003500091400C43446370BD0D2A09D2046BD21F37
:1003600002EB820293409C4391400C43046370BDB6
:10037000C46A0D3A02EB820293409C4391400C43C5
:10038000C46270BD816841F0804181607047FEE7C2
:10039000704701B50098411E00910028FAD108BDB0
:1003A000F0B50023012403270D6804FA03F2154079
:1003B000954242D1D0F800C05E0007FA06F52CEA5B
:1003C000050CC0F800C091F804C0D0F800E00CFAA9
:1003D00006FC4CEA0E0CC0F800C091F804C0BCF159
:1003E000010F02D0BCF1020F1FD1D0F808C02CEAD7
:1003F000050CC0F808C091F805C0D0F808E00CFA68
:1004000006FC4CEA0E0CC0F808C0D0F804C02CEA78
:10041000020CC0F804C0426891F806C00CFA03FC54
:100420001FFA8CFC42EA0C024260C268AA43C26016
:10043000CA79C568B2402A43C2605B1C102BB3D393
:10044000F0BDFEE770477047044A0029116801D0EB
:10045000014300E0814311607047000030380240E2
:10046000044A0029116801D0014300E08143116072
:10047000704700004438024010B50446FFF782FF81
:1004800002212046FFF717FF0028F9D0022120465D
:10049000FFF7A8FE2046BDE81040FFF709BF7047F0
:1004A0000CB500202749019000900A6842F4803280
:1004B0000A604FF4A0630A6802F400320092019AC5
:1004C000521C0192009A12B9019A9A42F3D10A6819
:1004D000920334D5012000901A484030026842F05F
:1004E000805202601848026842F480420260154857
:1004F000083002680260026842F40042026002684A
:1005000042F4A0520260031F104A1A600A6842F0C7
:1005100080720A600A689201FCD50D4A40F20561BA
:100520001160016821F003010160016841F00201DE
:1005300001600168C1F381010229FAD10CBD00906C
:100540000CBD000000380240007000400854400715
:10055000003C0240704700000F4810B5016841F0B0
:10056000010101600C4A00210832116002680B4B46
:100570001A400260031D0A4A1A60026822F48022AF
:10058000026005480C300160FFF78AFF05494FF013
:100590000060086010BD000000380240FFFFF6FE5A
:1005A0001030002408ED00E0FEE702E008C8121F4A
:1005B00008C1002AFAD170477047002001E001C14C
:1005C000121F002AFBD17047FFF7C6FFFFF72CFE72
:1005D00008480849091F00880880074D074E01F1A7
:1005E000080400212846FFF747FF60803046FFF7E8
:1005F000D0FEF6E7040000200020014020A1070003
:10060000200600080000002018000000AA050008CD
:10061000380600081800002028040000BA05000869
:100620000000000066664640000000000000000078
:080630000000000000000000C2
:040000050800018965
:00000001FF
